{
  "transactions": [
    {
      "hash": "0x190fcf488ebf02522156aa1aac67c3b5873bddaf3a34eaa4f72ec20dc1a4893d",
      "transactionType": "CALL",
      "contractName": null,
      "contractAddress": "0xc4e2b9f884bf8d06c42f4b8b6f2ce2678aa8b43e",
      "function": "bridgeToBase((bytes32,(uint8,address,uint256),uint120),(bytes32[3],bytes32))",
      "arguments": [
        "(0xdeadbeefdeadbeefdeadbeefdeadbeefdeadbeefdeadbeefdeadbeefdeadbeef, (0, 0x0000000000000000000000000000000000000000, 0), 1000000000000000)",
        "([0x0000000000000000000000000000000000000000000000000000000000000000, 0x0000000000000000000000000000000000000000000000000000000000000000, 0x0000000000000000000000000000000000000000000000000000000000000000], 0x0000000000000000000000000000000000000000000000000000000000000000)"
      ],
      "transaction": {
        "from": "0xedb816f31abcd2e14051ee7d53fc4aecc49ea551",
        "to": "0xc4e2b9f884bf8d06c42f4b8b6f2ce2678aa8b43e",
        "gas": "0x13d924",
        "value": "0x38d7ea4c68000",
        "input": "0x48e0c5d7deadbeefdeadbeefdeadbeefdeadbeefdeadbeefdeadbeefdeadbeefdeadbeef00000000000000000000000000000000000000000000000000000000000000000000000000000000000000000000000000000000000000000000000000000000000000000000000000000000000000000000000000000000000000000000000000000000000000000000000000000000000000000000000000038d7ea4c680000000000000000000000000000000000000000000000000000000000000000000000000000000000000000000000000000000000000000000000000000000000000000000000000000000000000000000000000000000000000000000000000000000000000000000000000000000000000000000000000000000000000000000",
        "nonce": "0x11",
        "chainId": "0xaa36a7"
      },
      "additionalContracts": [],
      "isFixedGasLimit": false
    }
  ],
  "receipts": [
    {
      "status": "0x1",
      "cumulativeGasUsed": "0xc067f2",
      "logs": [
        {
          "address": "0x616e29f64cadd5da342aed7a0ee73e2afb703941",
          "topics": [
            "0xb3813568d9991fc951961fcb4c784893574240a28925604d09fc577c55bb7c32",
            "0x00000000000000000000000068abaf4e08b072b3b53148a260913837518a1bc9",
            "0x0000000000000000000000004200000000000000000000000000000000000007",
            "0x0000000000000000000000000000000000000000000000000000000000000000"
          ],
          "data": "0x000000000000000000000000000000000000000000000000000000000000002000000000000000000000000000000000000000000000000000000000000002ad0000000000000000000000000000000000000000000000000000000000000000000000000000000000000000000000000000000000000000000000000000000000000000000c91f000d764ad0b0001000000000000000000000000000000000000000000000000000000000000000000000000000000000000c4e2b9f884bf8d06c42f4b8b6f2ce2678aa8b43e00000000000000000000000042000000000000000000000000000000000000710000000000000000000000000000000000000000000000000000000000000000000000000000000000000000000000000000000000000000000000000007a12000000000000000000000000000000000000000000000000000000000000000c0000000000000000000000000000000000000000000000000000000000000016498d6ee002ca7e0fa4d51be38e3eab40bf28476283cbadd18c07c3b4e8762613db4ba28cf0000000000000000000000000000000000000000000000000000000000000000deadbeefdeadbeefdeadbeefdeadbeefdeadbeefdeadbeefdeadbeefdeadbeef00000000000000000000000000000000000000000000000000000000000000000000000000000000000000000000000000000000000000000000000000000000000000000000000000000000000000000000000000000000000000000000000000000000000000000000000000000000000000000000000000038d7ea4c6800000000000000000000000000000000000000000000000000000000000000000000000000000000000000000000000000000000000000000000000000000000000000000000000000000000000000000000000000000000000000000000000000000000000000000000000000000000000000000000000000000000000000000000000000000000000000000000000000000000000000000000000000000000000000000000000000000000000000000",
          "blockHash": "0x1fc5f8491317c7f3bb61878e98968814b84c51657cea248d44708d6d255af5db",
          "blockNumber": "0x9f464f",
          "blockTimestamp": "0x69b3d5c4",
          "transactionHash": "0x190fcf488ebf02522156aa1aac67c3b5873bddaf3a34eaa4f72ec20dc1a4893d",
          "transactionIndex": "0x73",
          "logIndex": "0xa8",
          "removed": false
        },
        {
          "address": "0x579aaf4e08b072b3b53148a260913837518a0ab8",
          "topics": [
            "0xcb0f7ffd78f9aee47a248fae8db181db6eee833039123e026dcbff529522e52a",
            "0x0000000000000000000000004200000000000000000000000000000000000071"
          ],
          "data": "0x000000000000000000000000c4e2b9f884bf8d06c42f4b8b6f2ce2678aa8b43e00000000000000000000000000000000000000000000000000000000000000800001000000000000000000000000000000000000000000000000000000000000000000000000000000000000000000000000000000000000000000000007a120000000000000000000000000000000000000000000000000000000000000016498d6ee002ca7e0fa4d51be38e3eab40bf28476283cbadd18c07c3b4e8762613db4ba28cf0000000000000000000000000000000000000000000000000000000000000000deadbeefdeadbeefdeadbeefdeadbeefdeadbeefdeadbeefdeadbeefdeadbeef00000000000000000000000000000000000000000000000000000000000000000000000000000000000000000000000000000000000000000000000000000000000000000000000000000000000000000000000000000000000000000000000000000000000000000000000000000000000000000000000000038d7ea4c68000000000000000000000000000000000000000000000000000000000000000000000000000000000000000000000000000000000000000000000000000000000000000000000000000000000000000000000000000000000000000000000000000000000000000000000000000000000000000000000000000000000000000000000000000000000000000000000000000000000000000000000000000",
          "blockHash": "0x1fc5f8491317c7f3bb61878e98968814b84c51657cea248d44708d6d255af5db",
          "blockNumber": "0x9f464f",
          "blockTimestamp": "0x69b3d5c4",
          "transactionHash": "0x190fcf488ebf02522156aa1aac67c3b5873bddaf3a34eaa4f72ec20dc1a4893d",
          "transactionIndex": "0x73",
          "logIndex": "0xa9",
          "removed": false
        },
        {
          "address": "0x579aaf4e08b072b3b53148a260913837518a0ab8",
          "topics": [
            "0x8ebb2ec2465bdb2a06a66fc37a0963af8a2a6a1479d81d56fdb8cbb98096d546",
            "0x000000000000000000000000c4e2b9f884bf8d06c42f4b8b6f2ce2678aa8b43e"
          ],
          "data": "0x0000000000000000000000000000000000000000000000000000000000000000",
          "blockHash": "0x1fc5f8491317c7f3bb61878e98968814b84c51657cea248d44708d6d255af5db",
          "blockNumber": "0x9f464f",
          "blockTimestamp": "0x69b3d5c4",
          "transactionHash": "0x190fcf488ebf02522156aa1aac67c3b5873bddaf3a34eaa4f72ec20dc1a4893d",
          "transactionIndex": "0x73",
          "logIndex": "0xaa",
          "removed": false
        },
        {
          "address": "0xc4e2b9f884bf8d06c42f4b8b6f2ce2678aa8b43e",
          "topics": [
            "0x77e733e4007d08d3d41782cefc1cf21af36b3c603fa81bf7e2f5e4906d9ccd23",
            "0x0000000000000000000000000000000000000000000000000000000000000000",
            "0x2ca7e0fa4d51be38e3eab40bf28476283cbadd18c07c3b4e8762613db4ba28cf",
            "0x000000000000000000000000edb816f31abcd2e14051ee7d53fc4aecc49ea551"
          ],
          "data": "0x00000000000000000000000000000000000000000000000000038d7ea4c680000000000000000000000000000000000000000000000000000000000069b3d5c4",
          "blockHash": "0x1fc5f8491317c7f3bb61878e98968814b84c51657cea248d44708d6d255af5db",
          "blockNumber": "0x9f464f",
          "blockTimestamp": "0x69b3d5c4",
          "transactionHash": "0x190fcf488ebf02522156aa1aac67c3b5873bddaf3a34eaa4f72ec20dc1a4893d",
          "transactionIndex": "0x73",
          "logIndex": "0xab",
          "removed": false
        }
      ],
      "logsBloom": "0x00001000001000000010000000000000000000000000001000000000000000000000000010000000000000000004008080000000000000000008100000000000000000001000000040000002000000000400000000000000000000000000000000002008021000000000000040000800000800000000000000000000000004002000000800000000004000000000000001000000000400020000000000000000000000000000000020000000002000001000040000000000000000000000000000000000000000000002000008020010000000000000000000000000000020000000000001000000000000002040000000000000090000000000000000000000",
      "type": "0x2",
      "transactionHash": "0x190fcf488ebf02522156aa1aac67c3b5873bddaf3a34eaa4f72ec20dc1a4893d",
      "transactionIndex": "0x73",
      "blockHash": "0x1fc5f8491317c7f3bb61878e98968814b84c51657cea248d44708d6d255af5db",
      "blockNumber": "0x9f464f",
      "gasUsed": "0xe5ea8",
      "effectiveGasPrice": "0xf4249",
      "from": "0xedb816f31abcd2e14051ee7d53fc4aecc49ea551",
      "to": "0xc4e2b9f884bf8d06c42f4b8b6f2ce2678aa8b43e",
      "contractAddress": null
    }
  ],
  "libraries": [],
  "pending": [],
  "returns": {},
  "timestamp": 1773393349110,
  "chain": 11155111,
  "commit": "aaacf55"
}